:100000000C9435010C9444060C9419060C94EE05DE
:100010000C94C3050C9498050C946D050C94420542
:100020000C9417050C9466010C9466010C946601FF
:100030000C9466010C9466010C9466010C946601A4
:100040000C9466010C9466010C9466010C94660194
:100050000C9466010C9466010C9466010C94CD041A
:100060000C9466010C9466010C9466010C94660174
:100070000C9466010C9466010C9466010C94660164
:100080000C9466010C9466010C9466010C94660154
:100090000C9466010C9466010C9466010C94660144
:1000A0000C9466010C9466010C9466010C94660134
:1000B0000C9466010C9466010C9466010C94660124
:1000C0000C9466010C9466010C946F060C94660106
:1000D0000C9466010C9466010C9466010C94660104
:1000E0000C9466010C94FB020C94C8010C94D8018A
:1000F0000C949F040C94DC010C94C5010C94F30146
:100100000C94B9010C94F8010C94F8020C9453026D
:100110000C94E6010C94CE010C94EE010C942B0986
:100120000C94F7020C94B3010C94F4010C94D201DA
:100130000C94E0010C94EA010C94C1010C94F602B9
:100140000C94BD010C9468010000210024002700DC
:100150002A002D00300033000101000004010701D6
:100160000A0100002200250028002B002E0031008B
:10017000340002010000050108010B01000020000D
:100180002300260029002C002F003200000100006F
:10019000030106010901050505050705080808080A
:1001A000020202020A0A080804040404010101010F
:1001B000010101010303030303030303040707070A
:1001C0000C0C0C0C0C0C0C0C0202020206060606AF
:1001D000060606060B0B0B0B0B0B0B0B010210207C
:1001E000200808102040102040800201020108046D
:1001F0000201010204081020408080402010080401
:100200000201800402018040201008040201080459
:10021000020101020408102040800102040810209D
:10022000408000000A0B02090C0D0E0807030401B0
:1002300000000000000000000000000000000000BE
:10024000000000000000000000000000000012118B
:10025000100000000000000000000000000000008E
:1002600000000000000000002B0911241FBECFEF8A
:10027000D1E2DEBFCDBF00E00CBF23E0AEE8B3E0CB
:1002800001C01D92AC3BB207E1F713E0A0E0B2E081
:10029000EEEBF7E100E00BBF02C007900D92AE3825
:1002A000B107D9F711E0C5E3D1E000E006C021971E
:1002B0000109802FFE010E949D09C433D10780E00F
:1002C0000807A9F70E943E070C94DD0B0C94000070
:1002D000AF92BF92CF92DF92EF92FF920F931F9354
:1002E000CF93DF936C017B018B01040F151FEB0192
:1002F0005E01AE18BF08C017D10759F06991D60149
:10030000ED91FC910190F081E02DC6011995892BAA
:1003100079F7C501DF91CF911F910F91FF90EF9079
:10032000DF90CF90BF90AF9008958150823108F058
:100330005AC0E82FF0E08827EF55FE4F8F4F0C94FE
:100340009D09C101C501B301B901BD01F301C80196
:10035000CE01D201D801DC01E001E601EA01F3019E
:10036000EE01F401F801809180008F778093800086
:100370000895809180008F7DF9CF80918000877FE4
:10038000F5CF84B58F7784BD089584B58F7DFBCF7D
:100390008091B0008F778093B00008958091B00075
:1003A0008F7DF9CF809190008F7780939000089592
:1003B000809190008F7DF9CF80919000877FF5CF5D
:1003C0008091A0008F778093A00008958091A00075
:1003D0008F7DF9CF8091A000877FF5CF809120019C
:1003E0008F77809320010895809120018F7DF9CF30
:1003F00080912001877FF5CFCF93DF93282F30E0C6
:10040000F901EE5DFD4F8491F901E452FE4FD49164
:10041000F901EA56FE4FC491CC23A1F081110E944C
:100420009501EC2FF0E0EE0FFF1FE458FE4FA59171
:10043000B491EC91ED2381E090E009F480E0DF914C
:10044000CF91089580E090E0FACF1F93CF93DF9390
:10045000282F30E0F901EE5DFD4F8491F901E4525F
:10046000FE4FD491F901EA56FE4FC491CC23A9F076
:10047000162F81110E949501EC2FF0E0EE0FFF1F67
:10048000EE59FE4FA591B4918FB7F894EC911111EC
:1004900008C0D095DE23DC938FBFDF91CF911F91F1
:1004A0000895DE2BF8CF61E084E00E942502E3E7A7
:1004B000F0E080818E7F80831092A00010928000F7
:1004C0001092900010929F0385E090E090931502A7
:1004D000809314020895CF93DF9390E0FC01E452DF
:1004E000FE4F24918A569E4FFC0184918823D1F0BF
:1004F00090E0880F991FFC01E85BFE4FA591B49135
:10050000FC01EE59FE4FC591D491623071F49FB752
:10051000F8943C91822F809583238C93E8812E2B35
:1005200028839FBFDF91CF9108958FB7F894EC9106
:100530002E2B2C938FBFF6CF3FB7F89480919B035F
:1005400090919C03A0919D03B0919E0326B5A89B1A
:1005500005C02F3F19F00196A11DB11D3FBFBA2F55
:10056000A92F982F8827BC01CD01620F711D811D15
:10057000911D42E0660F771F881F991F4A95D1F79A
:1005800008958F929F92AF92BF92CF92DF92EF9297
:10059000FF920E949C024B015C0184E6C82ED12C84
:1005A000E12CF12C0E949C02681979098A099B09A7
:1005B000683E734081059105A8F321E0C21AD10875
:1005C000E108F10888EE880E83E0981EA11CB11C9A
:1005D000C114D104E104F10429F7FF90EF90DF90FA
:1005E000CF90BF90AF909F908F90089508950895F9
:1005F00090E080E00895CF9380919F0381112DC0FA
:100600008091730081608093730083EE80938000FB
:100610008093A00080939000C1E0C093A100C0939C
:100620009100C093810078942091140230911502BA
:10063000032E000C440B550B60EA76E881E090E055
:100640000E947E093093270120932601C0939F03C7
:1006500060E084E0CF910C942502CF910895FC01D5
:1006600001900020E9F73197AF01481B590BBC01FD
:1006700080EA93E00C946801CF93DF93EC018881CA
:100680009981009711F00E94630A198218821D82D5
:100690001C821B821A82DF91CF910895CF93DF9342
:1006A000EC0160E08E810E94250261E08E810E9453
:1006B000250260E08E810E9425028BE891E001977F
:1006C000F1F7DF91CF910895CF92DF92EF92FF92F1
:1006D0000F931F93CF93DF936C017C0187E0E80EAB
:1006E000F11CD0E0C0E0062F10E0B8010C2E02C0D3
:1006F000759567950A94E2F76170F70181917F0122
:100700000E9425022196C430D10579F7C601DF91F8
:10071000CF911F910F91FF90EF90DF90CF900C94AD
:100720004E03CF92DF92EF92FF920F931F93CF93DE
:10073000DF93EC01F62E642F8C810E9425028D81BF
:100740008F3F19F060E00E9425020F2D10E08F8589
:1007500084FF25C06E0187E0C80ED11CF12CE12C6E
:10076000B8010E2C02C0759567950A94E2F7617086
:10077000F60181916F010E942502FFEFEF1AFF0A37
:1007800088E0E816F10461F7CE01DF91CF911F9167
:100790000F91FF90EF90DF90CF900C944E03B80133
:1007A00084E0759567958A95E1F7CE010E94640310
:1007B0006F2DCE01DF91CF911F910F91FF90EF90A0
:1007C000DF90CF900C94640340E0682F80EA93E0C0
:1007D0000C949103CF93DF93823029F49091AF036F
:1007E00098609093AF038093B3031092B40380E4B6
:1007F0008093B50380E18093B60380E58093B703CF
:1008000061E08091A4030E946B028091A5038F3F59
:1008100019F061E00E946B0261E08091A6030E94E2
:100820006B02C0EAD3E09E01205A33408091AF03AF
:1008300084FD0BC084E090E021962817390744F42A
:1008400061E08E810E946B02EECF88E090E0F4CFF1
:100850008BE39DE00197F1F760E08091A4030E9493
:10086000250260E08091A6030E9425028091A503E5
:100870008F3F19F060E00E9425028091AF0384FD54
:1008800039C063E080EA93E00E946403CBE4D6E4DD
:10089000CE010197F1F763E080EA93E00E946403E0
:1008A0002197F1F763E080EA93E00E94640383E517
:1008B00092E00197F1F762E080EA93E00E9464031E
:1008C0008091AF0380620E94E40384E08093B003D0
:1008D0008CE00E94E40381E00E94E4038BE39FE14B
:1008E0000197F1F782E08093B10386E0DF91CF9129
:1008F0000C94E40380620E94E4038BE496E4019785
:10090000F1F78091AF0380620E94E40383E592E0F7
:100910000197F1F78091AF0380620E94E403D0CF8A
:100920009091B303691710F06FEF690FE62FF0E0B5
:10093000E056FC4F9489890F80680C94E40341E0F1
:100940000E94910381E090E008950F931F93CF934D
:10095000DF93EC0188819981009759F02A813B81CE
:100960002617370730F081E0DF91CF911F910F916B
:1009700008958B016F5F7F4F0E94EC0A009759F03A
:10098000998388831B830A832C813D81232B59F70C
:10099000FC011082E8CF80E0E7CF1F920F920FB6E4
:1009A0000F9211242F933F938F939F93AF93BF93F5
:1009B0008091970390919803A0919903B0919A0325
:1009C0003091960323E0230F2D3758F50196A11D92
:1009D000B11D209396038093970390939803A0935F
:1009E0009903B0939A0380919B0390919C03A091EB
:1009F0009D03B0919E030196A11DB11D80939B03A1
:100A000090939C03A0939D03B0939E03BF91AF91DD
:100A10009F918F913F912F910F900FBE0F901F903C
:100A2000189526E8230F0296A11DB11DD2CF1F9263
:100A30000F920FB60F9211240BB60F922F933F9384
:100A40004F935F936F937F938F939F93AF93BF93D6
:100A5000EF93FF93E0911202F09113021995FF9129
:100A6000EF91BF91AF919F918F917F916F915F9126
:100A70004F913F912F910F900BBE0F900FBE0F9093
:100A80001F9018951F920F920FB60F9211240BB65C
:100A90000F922F933F934F935F936F937F938F9317
:100AA0009F93AF93BF93EF93FF93E0911002F09168
:100AB00011021995FF91EF91BF91AF919F918F9185
:100AC0007F916F915F914F913F912F910F900BBE4E
:100AD0000F900FBE0F901F9018951F920F920FB698
:100AE0000F9211240BB60F922F933F934F935F9366
:100AF0006F937F938F939F93AF93BF93EF93FF93E6
:100B0000E0910602F09107021995FF91EF91BF91D4
:100B1000AF919F918F917F916F915F914F913F9195
:100B20002F910F900BBE0F900FBE0F901F90189536
:100B30001F920F920FB60F9211240BB60F922F93A4
:100B40003F934F935F936F937F938F939F93AF9355
:100B5000BF93EF93FF93E0910402F0910502199582
:100B6000FF91EF91BF91AF919F918F917F916F9185
:100B70005F914F913F912F910F900BBE0F900FBE41
:100B80000F901F9018951F920F920FB60F9211247D
:100B90000BB60F922F933F934F935F936F937F9377
:100BA0008F939F93AF93BF93EF93FF93E0910E02C8
:100BB000F0910F021995FF91EF91BF91AF919F9125
:100BC0008F917F916F915F914F913F912F910F90F6
:100BD0000BBE0F900FBE0F901F9018951F920F9293
:100BE0000FB60F9211240BB60F922F933F934F9392
:100BF0005F936F937F938F939F93AF93BF93EF9385
:100C0000FF93E0910C02F0910D021995FF91EF9185
:100C1000BF91AF919F918F917F916F915F914F9114
:100C20003F912F910F900BBE0F900FBE0F901F9012
:100C300018951F920F920FB60F9211240BB60F92B8
:100C40002F933F934F935F936F937F938F939F93D4
:100C5000AF93BF93EF93FF93E0910A02F0910B02E1
:100C60001995FF91EF91BF91AF919F918F917F91D6
:100C70006F915F914F913F912F910F900BBE0F900D
:100C80000FBE0F901F9018951F920F920FB60F92E4
:100C900011240BB60F922F933F934F935F936F9353
:100CA0007F938F939F93AF93BF93EF93FF93E091C5
:100CB0000802F09109021995FF91EF91BF91AF9150
:100CC0009F918F917F916F915F914F913F912F9164
:100CD0000F900BBE0F900FBE0F901F9018951F9294
:100CE0000F920FB60F9211240BB60F922F933F93D2
:100CF0004F935F936F937F938F939F93AF93BF9324
:100D0000EF93FF9361E088E00E942502E091940355
:100D1000F0919503EE0FFF1FE45EFD4F80819181FE
:100D20009C012451310937FD8BC0309393032093EC
:100D30009203909389008093880080919203909110
:100D4000930390938B0080938A00809194039091F9
:100D5000950301968D3991050CF077C0909395031A
:100D600080939403E0910202F0910302EE0FFF1FC3
:100D7000E45EFD4F808191819C012451310937FD52
:100D800069C030939103209390039093A9008093BE
:100D9000A80080919003909191039093AB00809371
:100DA000AA00809102029091030201968D3991056B
:100DB0000CF055C09093030280930202E091000270
:100DC000F0910102EE0FFF1FE45EFD4F80819181E3
:100DD0009C012451310937FD47C030938F03209384
:100DE0008E03909399008093980080918E03909148
:100DF0008F0390939B0080939A00809100029091C2
:100E0000010201968D399105A4F59093010280931A
:100E1000000260E088E00E942502FF91EF91BF91FF
:100E2000AF919F918F917F916F915F914F913F9182
:100E30002F910F900BBE0F900FBE0F901F90189523
:100E4000109293031092920374CF10929503109214
:100E5000940388CF109291031092900396CF109232
:100E6000030210920202AACF10928F0310928E03F7
:100E7000B8CF1092010210920002CBCFCF93DF9334
:100E8000CDB7DEB768970FB6F894DEBF0FBECDBF03
:100E9000789484B5826084BD84B5816084BD85B555
:100EA000826085BD85B5816085BD80916E00816061
:100EB00080936E0010928100809181008260809307
:100EC0008100809181008160809381008091800009
:100ED0008160809380008091B10084608093B10034
:100EE0008091B00081608093B00080919100826019
:100EF0008093910080919100816080939100809116
:100F000090008160809390008091A1008260809326
:100F1000A1008091A10081608093A1008091A00038
:100F200081608093A00080912101826080932101E3
:100F30008091210181608093210180912001816055
:100F40008093200180917A00846080937A00809160
:100F50007A00826080937A0080917A008160809329
:100F60007A0080917A00806880937A001092C100A4
:100F700061E08BE00E946B0261E08CE00E946B02FA
:100F800061E086E00E946B0261E087E00E946B02F4
:100F900061E085E00E946B0261E082E00E946B02EA
:100FA00061E088E00E946B0282E28093200189E187
:100FB000809321011092A0001092A1001092A50030
:100FC0001092A40081E08093A100109290001092F2
:100FD00091001092950010929400809391001092CD
:100FE00080001092810010928500109284008093FE
:100FF000810062E083E00E946B0262E085E10E9472
:101000006B0262E083E10E946B0262E084E10E9475
:101010006B028BEF92E090930D0280930C02809113
:1010200069008F7C806280936900EA9A83E592E090
:1010300090930B0280930A0280916900837F8860FD
:1010400080936900E99A61E084E00E946B0261E0AC
:1010500084E00E94250282E00E94EA038E010F5F75
:101060001F4F80EA482E86E8582E66246394712C20
:1010700090E0A92E90E0B92E80919F0360E0882334
:1010800009F4D1C080E00E94900482E693E00E94BF
:101090002F0360E08BE00E949004809114029091F5
:1010A00015021C8A1B8A1E8A1D8A188E1F8A4AE016
:1010B000B8010E944909F80101900020E9F7319731
:1010C0007F01E01AF10AB701CE0143960E94A50400
:1010D000811195C0CE0143960E943C031A82198269
:1010E0001C821B821E821D82EB88FC88E114F104A5
:1010F00059F0CF88D88CB601C8010E94A50481118F
:1011000086C0C8010E943C03ED80FE8083E0E80EAB
:10111000F11CB701C8010E94A504882309F47FC00F
:1011200029813A818D819E816EE673E0820F931F43
:101130000E94D60BFE82ED824D815E8169817A81AB
:1011400080EA93E00E94680189819A81009711F0FA
:101150000E94630A8B899C89009711F00E94630AA0
:1011600083E00E94FC01892BF9F40E94C102809166
:101170009F038823C9F02091140230911502223375
:10118000310594F42F5F3F4F3093150220931402E2
:10119000032E000C440B550BC301B2010E947E09C3
:1011A000309327012093260185E10E94FC01892BC1
:1011B000F9F40E94C10280919F038823C9F0209115
:1011C0001402309115022630310594F02150310976
:1011D0003093150220931402032E000C440B550B80
:1011E000C301B2010E947E0930932701209326019A
:1011F000A114B10409F440CF0E9400003DCFF88E45
:10120000EF8AB8018B899C890E94D60B67CFDE825A
:10121000CD82B70189819A810E94D60B75CFC80112
:101220000E943C0389CF89E00E94900482E793E00A
:101230000E942F0361E080E00E94900482E793E027
:101240000E942F0360E080E00E94900483E893E016
:101250000E942F0385CFE0EAF3E0138212828AE531
:1012600093E0918380838EE084838FEF858387E191
:10127000868389E187838BE180878DE181878FE198
:1012800082871386148615861686178681E00C944D
:10129000EA03BB274A3031F4992322F4BDE290954A
:1012A00081959F4F0C945509BB27FB015527AA2711
:1012B000880F991FAA1FA41710F0A41B83955051E3
:1012C000B9F7A05DAA3308F0A95DA193009779F75B
:1012D000B111B1931192CB010C946E09DC01FC01A8
:1012E000672F71917723E1F7329704C07C916D935A
:1012F00070836291AE17BF07C8F30895052E97FB60
:101300001EF400940E94950957FD07D00E94A5097C
:1013100007FC03D04EF40C949509509540953095F8
:1013200021953F4F4F4F5F4F089590958095709551
:1013300061957F4F8F4F9F4F0895EE0FFF1F881FBE
:101340008BBF0790F691E02D1994A1E21A2EAA1BEB
:10135000BB1BFD010DC0AA1FBB1FEE1FFF1FA21765
:10136000B307E407F50720F0A21BB30BE40BF50B62
:10137000661F771F881F991F1A9469F760957095EB
:10138000809590959B01AC01BD01CF0108950F930D
:101390001F93CF93DF938230910510F482E090E0A9
:1013A000E091BA03F091BB0330E020E0B0E0A0E0B0
:1013B000309799F42115310509F44AC0281B390BDF
:1013C00024303105D8F58A819B816115710589F139
:1013D000FB0193838283FE0111C040815181028110
:1013E000138148175907E0F04817590799F41097E7
:1013F00061F012960C93129713961C933296CF01BC
:10140000DF91CF911F910F9108950093BA0310932C
:10141000BB03F4CF2115310551F04217530738F0C3
:10142000A901DB019A01BD01DF01F801C1CFEF0184
:10143000F9CF9093BB038093BA03CDCFFE01E20FA7
:10144000F31F819391932250310939832883D7CF99
:101450002091B8033091B903232B41F42091180255
:10146000309119023093B9032093B80320911602EA
:10147000309117022115310541F42DB73EB7409147
:101480001A0250911B02241B350BE091B803F09116
:10149000B903E217F307A0F42E1B3F0B28173907F7
:1014A00078F0AC014E5F5F4F2417350748F04E0FC0
:1014B0005F1F5093B9034093B803819391939FCFDB
:1014C000F0E0E0E09CCFCF93DF930097E9F0FC01E0
:1014D000329713821282A091BA03B091BB03ED013F
:1014E00030E020E01097A1F420813181820F931F1A
:1014F0002091B8033091B9032817390709F061C06A
:10150000F093B903E093B803DF91CF910895EA0116
:10151000CE17DF07E8F54A815B819E014115510531
:10152000B1F7E901FB83EA8349915991C40FD51FB3
:10153000EC17FD0761F4808191810296840F951F5D
:10154000E90199838883828193819B838A83F0E078
:10155000E0E012968D919C9113970097B9F52D912B
:101560003C911197CD010296820F931F2091B803F1
:101570003091B9032817390739F6309751F5109291
:10158000BB031092BA03B093B903A093B803BCCFC6
:10159000D383C28340815181840F951FC817D90717
:1015A00061F44E5F5F4F88819981480F591F5183C5
:1015B00040838A819B81938382832115310509F0C1
:1015C000B0CFF093BB03E093BA039ECFFD01DC01E3
:1015D000C0CF13821282D7CF4F925F926F927F92C9
:1015E0008F929F92AF92BF92CF92DF92EF92FF9233
:1015F0000F931F93CF93DF938C01009799F4CB0146
:10160000DF91CF911F910F91FF90EF90DF90CF90DE
:10161000BF90AF909F908F907F906F905F904F9012
:101620000C94C709FC01E60FF71F9C0122503109F9
:10163000E217F30708F4AEC0D901CD91DC91119700
:10164000C617D70720F1C530D10578F0CE01049731
:101650008617970750F0C61BD70B2297C193D193DB
:101660006D937C93CF010E94630AC801DF91CF91F3
:101670001F910F91FF90EF90DF90CF90BF90AF90B0
:101680009F908F907F906F905F904F9008955B0137
:10169000AC1ABD0A4C018C0E9D1EA091BA03B091EC
:1016A000BB03512C412CF12CE12C109731F580918A
:1016B000B8039091B9038815990509F05CC04616E6
:1016C000570608F058C080911602909117020097B3
:1016D00041F48DB79EB740911A0250911B02841BB2
:1016E000950BE817F90708F055C0F093B903E0939C
:1016F000B803F90171836083B8CF8D919C911197E4
:1017000012966C90129713967C901397A815B905B2
:1017100059F56C0142E0C40ED11CCA14DB0420F15F
:10172000AC014A195B09DA011296159780F06282C2
:10173000738251834083D9016D937C93E114F1044A
:1017400071F0D7011396FC93EE9312978ECF2296E9
:101750008C0F9D1FF90191838083F301EFCFF093EC
:10176000BB03E093BA0381CF4816590608F42C0155
:101770007D01D3019ACFCB010E94C7097C0100975C
:1017800049F0AE01B8010E94CD0BC8010E94630A66
:1017900087016BCF10E000E068CFFB01DC0102C0E5
:1017A00001900D9241505040D8F70895FB01DC01A3
:0E17B00001900D920020E1F70895F894FFCF0C
:1017BE0068003400F602F602F602F602F602F602AF
:1017CE00F602F60205000000BC03800008021C02AF
:1017DE003002440257026B027E029102A402B7024B
:1017EE00C902DB02ED02FE020E031F032F033E03AE
:1017FE004D035B036803760382038E039903A303F1
:10180E00AD03B603BF03C603CD03D303D803DD0375
:10181E00E103E403E603E703E803E803E703E50374
:10182E00E203DF03DB03D603D003CA03C203BA030A
:10183E00B203A8039E03930388037C036F03620322
:10184E00540345033603270317030603F502E40288
:10185E00D202C002AE029B028802750261024E02E3
:10186E003A0226021202FE01EA01D601C201AE01BF
:10187E009A018701730160014D013A012801160199
:10188E000401F300E200D100C100B200A3009400F5
:10189E00860079006C00600055004A00400036005A
:1018AE002E0026001E00180012000D000900060072
:1018BE000300010000000000010002000400070008
:1018CE000B00100015001B002200290032003B0007
:1018DE0045004F005A006600720080008D009B008C
:1018EE00AA00B900C900DA00EA00FB000D011F01D1
:1018FE003101440157016A017D019101A401B80132
:10190E00CC01E001F401000000009F046801F80220
:10191E00F7024672657175656E63793A200020484C
:10192E007A0020202020202020202020202020206F
:0E193E0020200053746F70204D6F6465000010
:00000001FF
