:100000000C9428010C94A3050C9478050C944D05D0
:100010000C9422050C94F7040C94CC040C94A104C9
:100020000C9476040C9459010C9459010C945901C8
:100030000C9459010C9459010C9459010C945901D8
:100040000C9459010C9459010C9459010C945901C8
:100050000C9459010C9459010C9459010C942C04E2
:100060000C9459010C9459010C9459010C945901A8
:100070000C9459010C9459010C9459010C94590198
:100080000C9459010C9459010C9459010C94590188
:100090000C9459010C9459010C9459010C94590178
:1000A0000C9459010C9459010C9459010C94590168
:1000B0000C9459010C9459010C9459010C94590158
:1000C0000C9459010C9459010C94CE050C945901CF
:1000D0000C9459010C9459010C9459010C94590138
:1000E0000C9459010C94D3010C94CF010C94FA0395
:1000F0000C945B010C9400020C940A020C940E0206
:100100000C946C020C94B8010C94EE010C94FC015C
:100110000C94E8010C943C080C94D7010C94F20167
:100120000C94DE010C9426040C946B020C94B10325
:100130000C94E4010C94F6010C9404020C94BD019F
:100140000C94DB010C946A020000210024002700BB
:100150002A002D00300033000101000004010701D6
:100160000A0100002200250028002B002E0031008B
:10017000340002010000050108010B010505050519
:10018000070508080808020202020A0A080804040F
:10019000040401010101010101010303030303033D
:1001A0000303040707070C0C0C0C0C0C0C0C0202CC
:1001B000020206060606060606060B0B0B0B0B0BC9
:1001C0000B0B010210202008081020401020408056
:1001D000020102010804020101020408102040800B
:1001E0008040201008040201800402018040201099
:1001F00008040201080402010102040810204080E2
:10020000010204081020408000000A0B02090C0DB6
:100210000E080703040100000000000000000000B9
:1002200000000000000000000000000000000000CE
:10023000000000001211100000000000000000008B
:1002400000000000000000000000000000003C086A
:1002500011241FBECFEFD1E2DEBFCDBF00E00CBF47
:1002600014E0A0E0B2E0E4E4F5E100E00BBF02C07E
:1002700007900D92A439B107D9F724E0A4E9B4E0BE
:1002800001C01D92A83CB207E1F711E0C8E2D1E03D
:1002900000E006C021970109802FFE010E94980A04
:1002A000C732D10780E00807A9F70E94D4060C9452
:1002B000A00A0C940000AF92BF92CF92DF92EF920F
:1002C000FF920F931F93CF93DF936C017B018B0100
:1002D000040F151FEB015E01AE18BF08C017D10750
:1002E00059F06991D601ED91FC910190F081E02DDA
:1002F000C6011995892B79F7C501DF91CF911F911F
:100300000F91FF90EF90DF90CF90BF90AF90089546
:10031000282F30E0F901E85FFD4F9491F901EE5389
:10032000FE4F449124583E4FF9012491222309F4B1
:1003300035C0992311F191509231F8F4E92FF0E092
:100340008827EA55FE4F8F4F0C94980AD701DB019E
:10035000B801CF01D301BD01DE01E401E801EE01E6
:10036000F201F601FC010002BD0104020A020E02C4
:10037000809180008F7780938000E22FF0E0EE0F75
:10038000FF1FEE59FE4FA591B4918FB7F894EC91F1
:10039000611148C040954E234C938FBF08958091C2
:1003A00080008F7DE8CF80918000877FE4CF84B587
:1003B0008F7784BDE2CF84B58F7DFBCF8091B00075
:1003C0008F778093B000D9CF8091B0008F7DF9CF27
:1003D000809190008F7780939000CFCF8091900094
:1003E0008F7DF9CF80919000877FF5CF8091A0001D
:1003F0008F778093A000C1CF8091A0008F7DF9CF2F
:100400008091A000877FF5CF809120018F77809326
:100410002001B3CF809120018F7DF9CF8091200101
:10042000877FF5CF4E2BB8CFCF93DF9390E0FC01C1
:10043000EE53FE4F249184589E4FFC0184918823F3
:10044000D1F090E0880F991FFC01E85BFE4FA59169
:10045000B491FC01EE59FE4FC591D491623071F414
:100460009FB7F8943C91822F809583238C93E881E9
:100470002E2B28839FBFDF91CF9108958FB7F894DB
:10048000EC912E2B2C938FBFF6CF3FB7F894809131
:100490009E0490919F04A091A004B091A10426B560
:1004A000A89B05C02F3F19F00196A11DB11D3FBFAC
:1004B000BA2FA92F982F8827BC01CD01620F711D7B
:1004C000811D911D42E0660F771F881F991F4A9575
:1004D000D1F708950895089590E080E00895CF93AE
:1004E000DF93EC0160E08E810E94880161E08E81E3
:1004F0000E94880160E08E810E9488018BE891E073
:100500000197F1F7DF91CF910895CF92DF92EF92AB
:10051000FF920F931F93CF93DF936C017C0187E0D1
:10052000E80EF11CD0E0C0E0062F10E0B8010C2E60
:1005300002C0759567950A94E2F76170F7018191A1
:100540007F010E9488012196C430D10579F7C60148
:10055000DF91CF911F910F91FF90EF90DF90CF909F
:100560000C946F02CF92DF92EF92FF920F931F9342
:10057000CF93DF93EC01F62E642F8C810E948801CB
:100580008D818F3F19F060E00E9488010F2D10E0EF
:100590008F8584FF25C06E0187E0C80ED11CF12C29
:1005A000E12CB8010E2C02C0759567950A94E2F70C
:1005B0006170F60181916F010E948801FFEFEF1ACF
:1005C000FF0A88E0E816F10461F7CE01DF91CF91D0
:1005D0001F910F91FF90EF90DF90CF900C946F02DE
:1005E000B80184E0759567958A95E1F7CE010E9480
:1005F00085026F2DCE01DF91CF911F910F91FF905A
:10060000EF90DF90CF900C94850240E0682F80EB54
:1006100094E00C94B202CF93DF93823029F490914E
:10062000BF0498609093BF048093C3041092C404E5
:1006300080E48093C50480E18093C60480E58093C4
:10064000C70461E08091B4040E9414028091B50453
:100650008F3F19F061E00E94140261E08091B604BE
:100660000E941402C0EBD4E09E01205B34408091D4
:10067000BF0484FD0BC084E090E021962817390761
:1006800044F461E08E810E941402EECF88E090E095
:10069000F4CF8BE39DE00197F1F760E08091B40423
:1006A0000E94880160E08091B6040E9488018091D8
:1006B000B5048F3F19F060E00E9488018091BF046B
:1006C00084FD39C063E080EB94E00E948502CBE4B6
:1006D000D6E4CE010197F1F763E080EB94E00E944D
:1006E00085022197F1F763E080EB94E00E94850298
:1006F00083E592E00197F1F762E080EB94E00E94DD
:1007000085028091BF0480620E94050384E080938B
:10071000C0048CE00E94050381E00E9405038BE386
:100720009FE10197F1F782E08093C10486E0DF91B9
:10073000CF910C94050380620E9405038BE496E43C
:100740000197F1F78091BF0480620E94050383E561
:1007500092E00197F1F78091BF0480620E94050347
:10076000D0CF8091AF04882309F443C080919C04CA
:1007700081113FC060E084E00E94880191E0909385
:100780009C048FB7F8944091A2045091A304609107
:10079000A4047091A5048FBF4093AA045093AB04A6
:1007A0006093AC047093AD0480917300816080937A
:1007B000730083EE809380008093A000809390006C
:1007C0009093AE042FB7F8948091A2049091A30463
:1007D000A091A404B091A5042FBF8093AA04909384
:1007E000AB04A093AC04B093AD0482E00E940B0371
:1007F0007894089510929C0461E084E00E9488013E
:10080000E0EBF4E080898B7F808B88600E94050399
:1008100081E00E9405038BE39FE10197F1F7E3E795
:10082000F0E080818E7F8083F8941092A000109277
:100830008000109290001092A6041092A7041092CB
:10084000A8041092A9041092AE04089541E00E94F9
:10085000B20281E090E008951F920F920FB60F92BE
:1008600011242F933F938F939F93AF93BF938091C6
:10087000A2049091A304A091A404B091A504309186
:100880009D0423E0230F2D3758F50196A11DB11DBE
:1008900020939D048093A2049093A304A093A404A6
:1008A000B093A50480919E0490919F04A091A00410
:1008B000B091A1040196A11DB11D80939E04909357
:1008C0009F04A093A004B093A104BF91AF919F9106
:1008D0008F913F912F910F900FBE0F901F90189501
:1008E00026E8230F0296A11DB11DD2CF1F920F92B1
:1008F0000FB60F9211240BB60F922F933F934F9385
:100900005F936F937F938F939F93AF93BF93EF9377
:10091000FF93E0911202F09113021995FF91EF916C
:10092000BF91AF919F918F917F916F915F914F9107
:100930003F912F910F900BBE0F900FBE0F901F9005
:1009400018951F920F920FB60F9211240BB60F92AB
:100950002F933F934F935F936F937F938F939F93C7
:10096000AF93BF93EF93FF93E0911002F0911102C8
:100970001995FF91EF91BF91AF919F918F917F91C9
:100980006F915F914F913F912F910F900BBE0F9000
:100990000FBE0F901F9018951F920F920FB60F92D7
:1009A00011240BB60F922F933F934F935F936F9346
:1009B0007F938F939F93AF93BF93EF93FF93E091B8
:1009C0000602F09107021995FF91EF91BF91AF9147
:1009D0009F918F917F916F915F914F913F912F9157
:1009E0000F900BBE0F900FBE0F901F9018951F9287
:1009F0000F920FB60F9211240BB60F922F933F93C5
:100A00004F935F936F937F938F939F93AF93BF9316
:100A1000EF93FF93E0910402F09105021995FF9185
:100A2000EF91BF91AF919F918F917F916F915F9166
:100A30004F913F912F910F900BBE0F900FBE0F90D3
:100A40001F9018951F920F920FB60F9211240BB69C
:100A50000F922F933F934F935F936F937F938F9357
:100A60009F93AF93BF93EF93FF93E0910E02F091AA
:100A70000F021995FF91EF91BF91AF919F918F91C7
:100A80007F916F915F914F913F912F910F900BBE8E
:100A90000F900FBE0F901F9018951F920F920FB6D8
:100AA0000F9211240BB60F922F933F934F935F93A6
:100AB0006F937F938F939F93AF93BF93EF93FF9326
:100AC000E0910C02F0910D021995FF91EF91BF9109
:100AD000AF919F918F917F916F915F914F913F91D6
:100AE0002F910F900BBE0F900FBE0F901F90189577
:100AF0001F920F920FB60F9211240BB60F922F93E5
:100B00003F934F935F936F937F938F939F93AF9395
:100B1000BF93EF93FF93E0910A02F0910B021995B6
:100B2000FF91EF91BF91AF919F918F917F916F91C5
:100B30005F914F913F912F910F900BBE0F900FBE81
:100B40000F901F9018951F920F920FB60F921124BD
:100B50000BB60F922F933F934F935F936F937F93B7
:100B60008F939F93AF93BF93EF93FF93E09108020E
:100B7000F09109021995FF91EF91BF91AF919F916B
:100B80008F917F916F915F914F913F912F910F9036
:100B90000BBE0F900FBE0F901F9018951F920F92D3
:100BA0000FB60F9211240BB60F922F933F934F93D2
:100BB0005F936F937F938F939F93AF93BF93EF93C5
:100BC000FF936091A6047091A7048091A80490916E
:100BD000A904E0919A04F0919B04EE0FFF1FEE0F21
:100BE000FF1FEC5EFD4F20813181428153810E94C5
:100BF0002B0A20E030E040EF53E40E945B080E94A3
:100C00003E0977FDB3C070939904609398046C5EBD
:100C10007F4F709389006093880080919804909131
:100C2000990490938B0080938A0080919A0490910C
:100C30009B0401968E3991050CF09DC090939B0406
:100C400080939A046091A6047091A7048091A804EF
:100C50009091A904E0910202F0910302EE0FFF1FB0
:100C6000EE0FFF1FEC5EFD4F2081318142815381E9
:100C70000E942B0A20E030E040EF53E40E945B0822
:100C80000E943E0977FD7CC07093970460939604A0
:100C90006C5E7F4F7093A9006093A80080919604CA
:100CA000909197049093AB008093AA0080910202E8
:100CB0009091030201968E3991050CF066C09093D5
:100CC0000302809302026091A6047091A7048091B0
:100CD000A8049091A904E0910002F0910102EE0FA6
:100CE000FF1FEE0FFF1FEC5EFD4F2081318142811F
:100CF00053810E942B0A20E030E040EF53E40E9431
:100D00005B080E943E0977FD45C07093950460938F
:100D100094046C5E7F4F709399006093980080916B
:100D200094049091950490939B0080939A008091F5
:100D300000029091010201968E39910584F59093FD
:100D4000010280930002FF91EF91BF91AF919F91BB
:100D50008F917F916F915F914F913F912F910F9064
:100D60000BBE0F900FBE0F901F9018951092990414
:100D7000109298044CCF10929B0410929A0462CF68
:100D8000109297041092960483CF1092030210924F
:100D9000020299CF1092950410929404BACF109247
:100DA000010210920002CFCF789484B5826084BD96
:100DB00084B5816084BD85B5826085BD85B581605F
:100DC00085BD80916E00816080936E0010928100DD
:100DD0008091810082608093810080918100816098
:100DE0008093810080918000816080938000809159
:100DF000B10084608093B1008091B00081608093E5
:100E0000B000809191008260809391008091910068
:100E10008160809391008091900081608093900028
:100E20008091A10082608093A1008091A1008160E7
:100E30008093A1008091A00081608093A0008091A8
:100E40002101826080932101809121018160809342
:100E500021018091200181608093200180917A009E
:100E6000846080937A0080917A00826080937A0017
:100E700080917A00816080937A0080917A00806806
:100E800080937A001092C10061E08BE00E9414020E
:100E900061E08CE00E94140261E086E00E9414028E
:100EA00061E087E00E94140261E085E00E94140284
:100EB00061E082E00E94140282E28093200189E1D5
:100EC0008093210180ED97E0909327018093260184
:100ED0001092A0001092A1001092A5001092A40000
:100EE00081E08093A10010929000109291001092E6
:100EF00095001092940080939100109280001092BF
:100F0000810010928500109284008093810062E03D
:100F100083E00E94140262E085E10E94140262E014
:100F200083E10E94140262E084E10E94140281EBDA
:100F300093E090930D0280930C02809169008F7C66
:100F4000806280936900EA9A8AEF93E090930B02A3
:100F500080930A0280916900837F88608093690092
:100F6000E99A61E084E00E94140261E084E00E945A
:100F700088017894C0E0D0E011E08091AF04811145
:100F800027C00E9445024B015C0190E1C92E97E207
:100F9000D92EE12CF12C0E944502681979098A09A1
:100FA0009B09683E734081059105A8F321E0C21AB0
:100FB000D108E108F10888EE880E83E0981EA11C94
:100FC000B11CC114D104E104F10429F71093AF045A
:100FD0008091AE04882309F449C02FB7F89460913A
:100FE000A2047091A3048091A4049091A5042FBF42
:100FF000C090AA04D090AB04E090AC04F090AD0493
:101000006C197D098E099F090E94740920E030E067
:101010004AEF54E40E94CC086B017C0120E030E0F0
:1010200040E85FE30E94260A181634F4C12CD12C44
:1010300080E8E82E8FE3F82EC092A604D092A70491
:10104000E092A804F092A9046091A6047091A7040C
:101050008091A8049091A90420E030E040E85FE38B
:101060000E94C708811102C01092AE04209709F4B3
:1010700084CF0E94000081CFE0EBF4E01382128263
:101080008CE894E0918380838EE084838FEF858366
:1010900087E1868389E187838BE180878DE1818782
:1010A0008FE182871386148615861686178681E05F
:1010B0000C940B035058BB27AA270E9472080C946B
:1010C000EC090E94DE0938F00E94E50920F039F4AD
:1010D0009F3F19F426F40C94DB090EF4E095E7FB2E
:1010E0000C94D509E92F0E94FD0958F3BA1762073D
:1010F00073078407950720F079F4A6F50C941F0A6E
:101100000EF4E0950B2EBA2FA02D0B01B901900122
:101110000C01CA01A0011124FF27591B99F0593F66
:1011200050F4503E68F11A16F040A22F232F342FAE
:101130004427585FF3CF469537952795A795F040FC
:101140005395C9F77EF41F16BA0B620B730B840B11
:10115000BAF09150A1F0FF0FBB1F661F771F881FC9
:10116000C2F70EC0BA0F621F731F841F48F4879521
:1011700077956795B795F7959E3F08F0B0CF939513
:10118000880F08F09927EE0F9795879508950E948C
:10119000B10908F481E008950E94E0080C94EC097C
:1011A0000E94E50958F00E94DE0940F029F45F3FF3
:1011B00029F00C94D50951110C94200A0C94DB09E8
:1011C0000E94FD0968F39923B1F3552391F3951B10
:1011D000550BBB27AA2762177307840738F09F5F58
:1011E0005F4F220F331F441FAA1FA9F335D00E2EC5
:1011F0003AF0E0E832D091505040E695001CCAF732
:101200002BD0FE2F29D0660F771F881FBB1F2617F4
:1012100037074807AB07B0E809F0BB0B802DBF01CB
:10122000FF2793585F4F3AF09E3F510578F00C949A
:10123000D5090C94200A5F3FE4F3983ED4F38695D9
:1012400077956795B795F7959F5FC9F7880F911DBB
:101250009695879597F90895E1E0660F771F881FA7
:10126000BB1F621773078407BA0720F0621B730B5A
:10127000840BBA0BEE1F88F7E09508950E9445098C
:101280006894B1110C94200A08950E94050A88F010
:101290009F5798F0B92F9927B751B0F0E1F0660F3A
:1012A000771F881F991F1AF0BA95C9F714C0B1307B
:1012B00091F00E941F0AB1E008950C941F0A672F55
:1012C000782F8827B85F39F0B93FCCF386957795AA
:1012D0006795B395D9F73EF4909580957095619593
:1012E0007F4F8F4F9F4F0895E89409C097FB3EF4BE
:1012F00090958095709561957F4F8F4F9F4F992363
:10130000A9F0F92F96E9BB279395F69587957795E0
:101310006795B795F111F8CFFAF4BB0F11F460FFA0
:101320001BC06F5F7F4F8F4F9F4F16C0882311F0F8
:1013300096E911C0772321F09EE8872F762F05C00C
:10134000662371F096E8862F70E060E02AF09A95A7
:10135000660F771F881FDAF7880F9695879597F99C
:101360000895990F0008550FAA0BE0E8FEEF161636
:101370001706E807F907C0F012161306E407F50789
:1013800098F0621B730B840B950B39F40A2661F0FD
:10139000232B242B252B21F408950A2609F4A140A0
:1013A000A6958FEF811D811D089597F99F6780E8AD
:1013B00070E060E008959FEF80EC089500240A94A7
:1013C0001616170618060906089500240A94121620
:1013D0001306140605060895092E0394000C11F453
:1013E000882352F0BB0F40F4BF2B11F460FF04C000
:1013F0006F5F7F4F8F4F9F4F089557FD9058440F59
:10140000551F59F05F3F71F04795880F97FB991F63
:1014100061F09F3F79F08795089512161306140620
:10142000551FF2CF4695F1DF08C0161617061806AD
:10143000991FF1CF86957105610508940895E89488
:10144000BB2766277727CB0197F908950E94B1093A
:1014500008F48FEF08950E943E0A0C94EC090E9454
:10146000DE0938F00E94E50920F0952311F00C9474
:10147000D5090C94DB0911240C94200A0E94FD0963
:1014800070F3959FC1F3950F50E0551F629FF001D7
:10149000729FBB27F00DB11D639FAA27F00DB11DF0
:1014A000AA1F649F6627B00DA11D661F829F222779
:1014B000B00DA11D621F739FB00DA11D621F839F00
:1014C000A00D611D221F749F3327A00D611D231FD6
:1014D000849F600D211D822F762F6A2F11249F5724
:1014E00050409AF0F1F088234AF0EE0FFF1FBB1F27
:1014F000661F771F881F91505040A9F79E3F5105E6
:1015000080F00C94D5090C94200A5F3FE4F3983ED8
:10151000D4F3869577956795B795F795E7959F5F8F
:10152000C1F7FE2B880F911D9695879597F9089521
:10153000EE0FFF1F881F8BBF0790F691E02D1994C7
:04154000F894FFCF4D
:10154400680034006A026A026A026A026A026A0273
:101554006A026A020000A0410000204200007042BA
:101564000000A0420000C6420000EE4200000A4310
:1015740000001D4300003043000043430000554376
:1015840000006743000079430000854300008D4359
:101594000080954300809D430000A5430080AC4338
:1015A4000080B3430000BA430000C1430000C743B6
:1015B4000000CD430080D2430080D7430080DC4349
:1015C4000000E1430080E5430000E9430080EC4370
:1015D4000080EF430000F2430080F4430080F643B0
:1015E4000000F8430000F9430080F9430000FA4387
:1015F4000000FA430080F9430080F8430000F743F9
:101604000080F5430080F3430000F1430000EE4303
:101614000000EB430000E7430000E3430000DF4326
:101624000000DA430000D5430080CF430000CA43E2
:101634000000C4430080BD430000B7430000B04332
:101644000080A8430000A143008099430080914397
:1016540000008943008080430000704300005E4323
:1016640000004C4300003A430000274300001443A9
:10167400000001430000DA420000B44200008C4242
:10168400000048420000F04100002041000020C159
:101694000000F0C1000048C200008CC20000B4C2C7
:1016A4000000DAC2000001C3000014C3000027C315
:1016B40000003AC300004CC300005EC3000070C3C6
:1016C400008080C3000089C3008091C3008099C357
:1016D4000000A1C30080A8C30000B0C30000B7C3CA
:1016E4000080BDC30000C4C30000CAC30080CFC3D0
:1016F4000000D5C30000DAC30000DFC30000E3C369
:101704000000E7C30000EBC30000EEC30000F1C318
:101714000080F3C30080F5C30000F7C30080F8C362
:101724000080F9C30000FAC30000FAC30080F9C3C3
:101734000000F9C30000F8C30080F6C30080F4C3BE
:101744000000F2C30080EFC30080ECC30000E9C3D3
:101754000080E5C30000E1C30080DCC30080D7C380
:101764000080D2C30000CDC30000C7C30000C1C3C2
:101774000000BAC30080B3C30080ACC30000A5C39B
:1017840000809DC3008095C300008DC3000085C305
:10179400000079C3000067C3000055C3000043C3C1
:1017A400000030C300001DC300000AC30000EEC2E5
:1017B4000000C6C20000A0C2000070C2000020C227
:1017C4000000A0C1000000000000000026045B012E
:0417D4006C026B0236
:00000001FF
