:100000000C9435010C9472070C9447070C941C0750
:100010000C94F1060C94C6060C949B060C94700686
:100020000C9445060C9466010C9466010C946601D0
:100030000C9466010C9466010C9466010C946601A4
:100040000C9466010C9466010C9466010C94660194
:100050000C9466010C9466010C9466010C94FB05EB
:100060000C9466010C9466010C9466010C94660174
:100070000C9466010C9466010C9466010C94660164
:100080000C9466010C9466010C9466010C94660154
:100090000C9466010C9466010C9466010C94660144
:1000A0000C9466010C9466010C9466010C94660134
:1000B0000C9466010C9466010C9466010C94660124
:1000C0000C9466010C9466010C949D070C946601D7
:1000D0000C9466010C9466010C9466010C94660104
:1000E0000C9466010C94E6010C94C1010C9403037A
:1000F0000C94CE010C94DD040C94D2010C945302A8
:100100000C94B3010C94DC010C94EA010C94280BC0
:100110000C94EE010C94F3010C94F4010C94C501C1
:100120000C94D8010C9468010C94C8010C9404033D
:100130000C94F8010C94E0010C9402030C94B901A6
:100140000C9407030C94BD0100002100240027003B
:100150002A002D00300033000101000004010701D6
:100160000A0100002200250028002B002E0031008B
:10017000340002010000050108010B01000020000D
:100180002300260029002C002F003200000100006F
:10019000030106010901050505050705080808080A
:1001A000020202020A0A080804040404010101010F
:1001B000010101010303030303030303040707070A
:1001C0000C0C0C0C0C0C0C0C0202020206060606AF
:1001D000060606060B0B0B0B0B0B0B0B010210207C
:1001E000200808102040102040800201020108046D
:1001F0000201010204081020408080402010080401
:100200000201800402018040201008040201080459
:10021000020101020408102040800102040810209D
:10022000408000000A0B02090C0D0E0807030401B0
:1002300000000000000000000000000000000000BE
:10024000000000000000000000000000000012118B
:10025000100000000000000000000000000000008E
:100260000000000000000000280B11241FBECFEF8B
:10027000D1E2DEBFCDBF00E00CBF25E0AAEEB4E0C6
:1002800001C01D92A831B207E1F714E0A0E0B2E08E
:10029000EEE3F0E200E00BBF02C007900D92AA3E31
:1002A000B107D9F711E0C5E3D1E000E006C021971E
:1002B0000109802FFE010E94FF0DC433D10780E0A9
:1002C0000807A9F70E94A9080C941D100C940000BF
:1002D000AF92BF92CF92DF92EF92FF920F931F9354
:1002E000CF93DF936C017B018B01040F151FEB0192
:1002F0005E01AE18BF08C017D10759F06991D60149
:10030000ED91FC910190F081E02DC6011995892BAA
:1003100079F7C501DF91CF911F910F91FF90EF9079
:10032000DF90CF90BF90AF9008958150823108F058
:100330005AC0E82FF0E08827EF55FE4F8F4F0C94FE
:10034000FF0DC101C501B301B901BD01F301C80130
:10035000CE01D201D801DC01E001E601EA01F3019E
:10036000EE01F401F801809180008F778093800086
:100370000895809180008F7DF9CF80918000877FE4
:10038000F5CF84B58F7784BD089584B58F7DFBCF7D
:100390008091B0008F778093B00008958091B00075
:1003A0008F7DF9CF809190008F7780939000089592
:1003B000809190008F7DF9CF80919000877FF5CF5D
:1003C0008091A0008F778093A00008958091A00075
:1003D0008F7DF9CF8091A000877FF5CF809120019C
:1003E0008F77809320010895809120018F7DF9CF30
:1003F00080912001877FF5CFCF93DF93282F30E0C6
:10040000F901EE5DFD4F8491F901E452FE4FD49164
:10041000F901EA56FE4FC491CC23A1F081110E944C
:100420009501EC2FF0E0EE0FFF1FE458FE4FA59171
:10043000B491EC91ED2381E090E009F480E0DF914C
:10044000CF91089580E090E0FACF1F93CF93DF9390
:10045000282F30E0F901EE5DFD4F8491F901E4525F
:10046000FE4FD491F901EA56FE4FC491CC23A9F076
:10047000162F81110E949501EC2FF0E0EE0FFF1F67
:10048000EE59FE4FA591B4918FB7F894EC911111EC
:1004900008C0D095DE23DC938FBFDF91CF911F91F1
:1004A0000895DE2BF8CF61E084E00E942502E3E7A7
:1004B000F0E080818E7F80831092A00010928000F7
:1004C000109290001092FB0486E993E4ABE0BEE347
:1004D0008093140290931502A0931602B093170212
:1004E00082E090E090931902809318020895CF93D0
:1004F000DF9390E0FC01E452FE4F24918A569E4F18
:10050000FC0184918823D1F090E0880F991FFC01B1
:10051000E85BFE4FA591B491FC01EE59FE4FC591E9
:10052000D491623071F49FB7F8943C91822F8095FA
:1005300083238C93E8812E2B28839FBFDF91CF915B
:1005400008958FB7F894EC912E2B2C938FBFF6CF94
:100550003FB7F8948091F7049091F804A091F904C2
:10056000B091FA0426B5A89B05C02F3F19F001965B
:10057000A11DB11D3FBFBA2FA92F982F8827BC01FD
:10058000CD01620F711D811D911D42E0660F771F25
:10059000881F991F4A95D1F708958F929F92AF9225
:1005A000BF92CF92DF92EF92FF920E94A8024B017E
:1005B0005C0184E6C82ED12CE12CF12C0E94A8020B
:1005C000681979098A099B09683E7340810591057C
:1005D000A8F321E0C21AD108E108F10888EE880EDC
:1005E00083E0981EA11CB11CC114D104E104F104E4
:1005F00029F7FF90EF90DF90CF90BF90AF909F9042
:100600008F9008950895089590E080E00895CF9325
:100610008091FB0481112DC08091730081608093D3
:10062000730083EE809380008093A00080939000FD
:10063000C1E0C093A100C0939100C0938100789461
:100640002091180230911902032E000C440B550B17
:1006500060EA76E881E090E00E94E00D30932701A7
:1006600020932601C093FB0460E084E0CF910C94BA
:100670002502CF910895FC0101900020E9F7319700
:10068000AF01481B590BBC018CEF94E00C9468013E
:100690008F929F92AF92BF920F931F93CF93DF934E
:1006A000CDB7DEB7A1970FB6F894DEBF0FBECDBFB2
:1006B00019A2423008F44AE08E010F5D1F4F842ECC
:1006C000912CB12CA12CA50194010E94BE0DE62F06
:1006D000B901CA01EA30F4F4E05DD801EE938D016E
:1006E000232B242B252B79F790E080E0109719F02D
:1006F000CD010E943B03A1960FB6F894DEBF0FBE5A
:10070000CDBFDF91CF911F910F91BF90AF909F9080
:100710008F900895E95CE1CFCF93DF93EC0160E027
:100720008E810E94250261E08E810E94250260E098
:100730008E810E9425028BE891E00197F1F7DF910D
:10074000CF910895CF92DF92EF92FF920F931F9374
:10075000CF93DF936C017C0187E0E80EF11CD0E0C1
:10076000C0E0062F10E0B8010C2E02C07595679509
:100770000A94E2F76170F70181917F010E942502DE
:100780002196C430D10579F7C601DF91CF911F9131
:100790000F91FF90EF90DF90CF900C948C03CF924D
:1007A000DF92EF92FF920F931F93CF93DF93EC01B1
:1007B000F62E642F8C810E9425028D818F3F19F0C7
:1007C00060E00E9425020F2D10E08F8584FF25C078
:1007D0006E0187E0C80ED11CF12CE12CB8010E2C63
:1007E00002C0759567950A94E2F76170F6018191F0
:1007F0006F010E942502FFEFEF1AFF0A88E0E8165A
:10080000F10461F7CE01DF91CF911F910F91FF901D
:10081000EF90DF90CF900C948C03B80184E0759535
:1008200067958A95E1F7CE010E94A2036F2DCE0154
:10083000DF91CF911F910F91FF90EF90DF90CF90BC
:100840000C94A20340E0682F8CEF94E00C94CF034B
:10085000CF93DF93823029F490910B0598609093A9
:100860000B0580930F051092100580E4809311050D
:1008700080E18093120580E58093130561E080910B
:1008800000050E947702809101058F3F19F061E019
:100890000E94770261E0809102050E947702CCEF0E
:1008A000D4E09E012C5F344080910B0584FD0BC089
:1008B00084E090E021962817390744F461E08E81A6
:1008C0000E947702EECF88E090E0F4CF8BE39DE0CA
:1008D0000197F1F760E0809100050E94250260E039
:1008E000809102050E942502809101058F3F19F039
:1008F00060E00E94250280910B0584FD39C063E011
:100900008CEF94E00E94A203CBE4D6E4CE010197E1
:10091000F1F763E08CEF94E00E94A2032197F1F7D6
:1009200063E08CEF94E00E94A20383E592E00197DC
:10093000F1F762E08CEF94E00E94A20380910B0536
:1009400080620E94220484E080930C058CE00E9467
:10095000220481E00E9422048BE39FE10197F1F7DA
:1009600082E080930D0586E0DF91CF910C94220404
:1009700080620E9422048BE496E40197F1F7809153
:100980000B0580620E94220483E592E00197F1F753
:1009900080910B0580620E942204D0CF90910F05B8
:1009A000691710F06FEF690FE62FF0E0E450FB4F8E
:1009B0009489890F80680C94220441E00E94CF033F
:1009C00081E090E008954F925F926F927F928F92B4
:1009D0009F92AF92BF92CF92DF92EF92FF920F93CE
:1009E0001F93CF936B017C01742EAC019B010E947D
:1009F000B90D882399F080EA94E0CF911F910F916F
:100A0000FF90EF90DF90CF90BF90AF909F908F902E
:100A10007F906F905F904F900C943B03460157017D
:100A2000E894B7F82FEF3FEF4FE75FE7C501B40158
:100A30000E94B90D81110DC02FEF3FEF4FE75FE727
:100A4000C501B4010E947B0B18161CF484EA94E0E3
:100A5000D4CF2FEF3FEF4FE75FE4C701B6010E940D
:100A6000B40D18161CF488EA94E0C7CF2FEF3FEFBF
:100A70004FE75FECC701B6010E947B0B87FDF3CF08
:100A800020E030E0A901C701B6010E947B0B10E015
:100A900000E087FF0CC041E06DE28CEF94E00E9423
:100AA000CF03F7FAF094F7F8F09401E010E0C0E01B
:100AB00060E070E080E09FE37C1641F020E030E0F1
:100AC00040E251E40E940C0DCF5FF6CFA7019601E2
:100AD0000E94A00C4B015C010E94850D2B013C0182
:100AE0004AE00E944803080F191FCC23C9F1C30133
:100AF000B2010E94800B9B01AC01C501B4010E94B0
:100B00009F0C4B015C0141E06EE28CEF94E00E948F
:100B1000CF030F5F1F4FC15018F120E030E040E2DB
:100B200051E4C501B4010E94E10B2B013C010E947C
:100B3000850D4B01B12CA12C4AE0C501B4010E94E6
:100B40004803080F191FC501B4010E94800B9B01C7
:100B5000AC01C301B2010E949F0C4B015C01DBCFD1
:100B6000C801CF911F910F91FF90EF90DF90CF9030
:100B7000BF90AF909F908F907F906F905F904F90BD
:100B80000895CF93DF93EC0188819981009711F04C
:100B90000E94A30E198218821D821C821B821A8257
:100BA000DF91CF9108950F931F93CF93DF93EC01C3
:100BB00088819981009759F02A813B812617370750
:100BC00030F081E0DF91CF911F910F9108958B015B
:100BD0006F5F7F4F0E942C0F009759F09983888395
:100BE0001B830A832C813D81232B59F7FC01108242
:100BF000E8CF80E0E7CF1F920F920FB60F9211243B
:100C00002F933F938F939F93AF93BF938091F30460
:100C10009091F404A091F504B091F6043091F2049F
:100C200023E0230F2D3758F50196A11DB11D209308
:100C3000F2048093F3049093F404A093F504B0932A
:100C4000F6048091F7049091F804A091F904B09112
:100C5000FA040196A11DB11D8093F7049093F80446
:100C6000A093F904B093FA04BF91AF919F918F9133
:100C70003F912F910F900FBE0F901F90189526E86F
:100C8000230F0296A11DB11DD2CF1F920F920FB656
:100C90000F9211240BB60F922F933F934F935F93B4
:100CA0006F937F938F939F93AF93BF93EF93FF9334
:100CB000E0911202F09113021995FF91EF91BF910B
:100CC000AF919F918F917F916F915F914F913F91E4
:100CD0002F910F900BBE0F900FBE0F901F90189585
:100CE0001F920F920FB60F9211240BB60F922F93F3
:100CF0003F934F935F936F937F938F939F93AF93A4
:100D0000BF93EF93FF93E0911002F09111021995B8
:100D1000FF91EF91BF91AF919F918F917F916F91D3
:100D20005F914F913F912F910F900BBE0F900FBE8F
:100D30000F901F9018951F920F920FB60F921124CB
:100D40000BB60F922F933F934F935F936F937F93C5
:100D50008F939F93AF93BF93EF93FF93E09106021E
:100D6000F09107021995FF91EF91BF91AF919F917B
:100D70008F917F916F915F914F913F912F910F9044
:100D80000BBE0F900FBE0F901F9018951F920F92E1
:100D90000FB60F9211240BB60F922F933F934F93E0
:100DA0005F936F937F938F939F93AF93BF93EF93D3
:100DB000FF93E0910402F09105021995FF91EF91E4
:100DC000BF91AF919F918F917F916F915F914F9163
:100DD0003F912F910F900BBE0F900FBE0F901F9061
:100DE00018951F920F920FB60F9211240BB60F9207
:100DF0002F933F934F935F936F937F938F939F9323
:100E0000AF93BF93EF93FF93E0910E02F0910F0227
:100E10001995FF91EF91BF91AF919F918F917F9124
:100E20006F915F914F913F912F910F900BBE0F905B
:100E30000FBE0F901F9018951F920F920FB60F9232
:100E400011240BB60F922F933F934F935F936F93A1
:100E50007F938F939F93AF93BF93EF93FF93E09113
:100E60000C02F0910D021995FF91EF91BF91AF9196
:100E70009F918F917F916F915F914F913F912F91B2
:100E80000F900BBE0F900FBE0F901F9018951F92E2
:100E90000F920FB60F9211240BB60F922F933F9320
:100EA0004F935F936F937F938F939F93AF93BF9372
:100EB000EF93FF93E0910A02F0910B021995FF91D5
:100EC000EF91BF91AF919F918F917F916F915F91C2
:100ED0004F913F912F910F900BBE0F900FBE0F902F
:100EE0001F9018951F920F920FB60F9211240BB6F8
:100EF0000F922F933F934F935F936F937F938F93B3
:100F00009F93AF93BF93EF93FF93E0910802F0910B
:100F100009021995FF91EF91BF91AF919F918F9128
:100F20007F916F915F914F913F912F910F900BBEE9
:100F30000F900FBE0F901F9018951F920F920FB633
:100F40000F9211240BB60F92CF92DF92EF92FF9285
:100F50002F933F934F935F936F937F938F939F93C1
:100F6000AF93BF93EF93FF9361E088E00E94250267
:100F7000C0901402D0901502E0901602F090170273
:100F8000E091F004F091F104EE0FFF1FEE0FFF1F50
:100F9000E05EFD4F2081318142815381C701B6015E
:100FA0000E94E10B20E030E040EF53E40E94A00CEF
:100FB0000E947E0D77FDAFC07093EF046093EE0446
:100FC0006C5E7F4F70938900609388008091EE047F
:100FD0009091EF0490938B0080938A008091F004AD
:100FE0009091F10401968E3991050CF099C090937F
:100FF000F1048093F004E0910202F0910302EE0FFD
:10100000FF1FEE0FFF1FE05EFD4F20813181428107
:101010005381C701B6010E94E10B20E030E040EFB0
:1010200053E40E94A00C0E947E0D77FD7EC0709359
:10103000ED046093EC046C5E7F4F7093A9006093A5
:10104000A8008091EC049091ED049093AB00809304
:10105000AA00809102029091030201968E399105B7
:101060000CF068C09093030280930202E0910002AA
:10107000F0910102EE0FFF1FEE0FFF1FE05EFD4F2C
:101080002081318142815381C701B6010E94E10B69
:1010900020E030E040EF53E40E94A00C0E947E0D5F
:1010A00077FD4DC07093EB046093EA046C5E7F4F54
:1010B00070939900609398008091EA049091EB04FA
:1010C00090939B0080939A0080910002909101027E
:1010D00001968E399105C4F5909301028093000228
:1010E00060E088E00E942502FF91EF91BF91AF91EF
:1010F0009F918F917F916F915F914F913F912F9130
:10110000FF90EF90DF90CF900F900BBE0F900FBE2F
:101110000F901F9018951092EF041092EE0450CF8C
:101120001092F1041092F00466CF1092ED04109228
:10113000EC0481CF109203021092020297CF10921A
:10114000EB041092EA04B2CF109201021092000256
:10115000C7CFCF93DF93CDB7DEB768970FB6F894BC
:10116000DEBF0FBECDBF789484B5826084BD84B5E8
:10117000816084BD85B5826085BD85B5816085BD92
:1011800080916E00816080936E001092810080914A
:1011900081008260809381008091810081608093D2
:1011A0008100809180008160809380008091B100F7
:1011B00084608093B1008091B00081608093B00022
:1011C0008091910082608093910080919100816074
:1011D0008093910080919000816080939000809135
:1011E000A10082608093A1008091A1008160809322
:1011F000A1008091A00081608093A00080912101D6
:10120000826080932101809121018160809321017E
:101210008091200181608093200180917A00846018
:1012200080937A0080917A00826080937A00809126
:101230007A00816080937A0080917A008068809340
:101240007A001092C10061E08BE00E94770261E0B9
:101250008CE00E94770261E086E00E94770261E004
:1012600087E00E94770261E085E00E94770261E0FA
:1012700082E00E94770261E088E00E94770282E2C9
:101280008093200189E180932101209118023091FF
:101290001902032E000C440B550B60EA76E881E03E
:1012A00090E00E94E00D30932701209326011092D8
:1012B000A0001092A1001092A5001092A40081E05D
:1012C0008093A100109290001092910010929500CE
:1012D00010929400809391001092800010928100EF
:1012E00010928500109284008093810062E083E078
:1012F0000E94770262E085E10E94770262E083E16A
:101300000E94770262E084E10E94770287E093E026
:1013100090930D0280930C02809169008F7C806213
:1013200080936900EA9A83E592E090930B028093A0
:101330000A0280916900837F886080936900E99A3E
:1013400061E084E00E94770261E084E00E9425026F
:1013500082E00E9428048E010F5F1F4F80EA482E12
:1013600086E8582E66246394712C90E0292E90E034
:10137000392E8091FB04882309F451C180917B00B0
:10138000886080937B0087E480937C0080917A0062
:10139000806480937A0080917A0086FDFCCF8091F2
:1013A000780060917900762F682F072E000C880B4B
:1013B000990B0E94820B2AE038E240EA5BE30E942C
:1013C000E10B2CE135EF47EA52E40E94E10B4B01BF
:1013D0005C0160E080E00E94CE048CEA94E00E9410
:1013E0003B0360E08BE00E94CE0480911802909154
:1013F00019021C8A1B8A1E8A1D8A188E1F8A4AE0BF
:10140000B8010E94460BF80101900020E9F73197DE
:101410007F01E01AF10AB701CE0143960E94D3057D
:101420008111E9C0CE0143960E94C1051A8219823A
:101430001C821B821E821D82EB88FC88E114F10451
:1014400059F0CF88D88CB601C8010E94D30581110C
:10145000DAC0C8010E94C105ED80FE8083E0E80E7D
:10146000F11CB701C8010E94D305882309F4D3C039
:1014700029813A818D819E8168EB74E0820F931FF0
:101480000E941610FE82ED824D815E8169817A8113
:101490008CEF94E00E94680189819A81009711F095
:1014A0000E94A30E8B899C89009711F00E94A30EC5
:1014B00061E080E00E94CE048CEB94E00E943B034C
:1014C000609114027091150280911602909117029A
:1014D00043E00E94E30461E089E00E94CE048FEBC8
:1014E00094E00E943B0342E0C501B4010E94E30482
:1014F00084EC94E00E943B0383E00E94FC01892B72
:10150000B9F50E94CD028091FB04882389F1E09017
:101510001802F090190282E3E816F1044CF58FEFFF
:10152000E81AF80AF0921902E09218022CEB34E75C
:1015300043E95CE3609114027091150280911602F8
:10154000909117020E94A00C6093140270931502F0
:1015500080931602909317029701FF0C440B550BD2
:10156000C301B2010E94E00D3093270120932601B0
:1015700085E10E94FC01892BB9F50E94CD02809182
:10158000FB04882389F1E0901802F090190283E0AF
:10159000E816F1044CF181E0E81AF108F092190222
:1015A000E09218022CEB34E743E95CE3609114020B
:1015B0007091150280911602909117020E949F0C63
:1015C0006093140270931502809316029093170291
:1015D0009701FF0C440B550BC301B2010E94E00DB3
:1015E00030932701209326012114310409F4C1CE40
:1015F0000E940000BECEF88EEF8AB8018B899C89CC
:101600000E94161013CFDE82CD82B70189819A81A4
:101610000E94161021CFC8010E94C10535CF8EEC63
:1016200094E00E943B0361E080E00E94CE048EECD7
:1016300094E00E943B0360E080E00E94CE048FEDC6
:1016400094E00E943B0360E08BE00E94CE0454CF04
:10165000ECEFF4E01382128288E994E091838083B6
:101660008EE084838FEF858387E1868389E187839A
:101670008BE180878DE181878FE1828713861486D5
:1016800015861686178681E00C942804BB274A30FD
:1016900031F4992322F4BDE2909581959F4F0C94EB
:1016A000520BBB27FB015527AA27880F991FAA1F9A
:1016B000A41710F0A41B83955051B9F7A05DAA336D
:1016C00008F0A95DA193009779F7B111B193119238
:1016D000CB010C946B0BDC01FC01672F719177231C
:1016E000E1F7329704C07C916D9370836291AE17DD
:1016F000BF07C8F308950E94BD0B08F481E0089568
:10170000E89409C097FB3EF490958095709561959B
:101710007F4F8F4F9F4F9923A9F0F92F96E9BB2751
:101720009395F695879577956795B795F111F8CFCD
:10173000FAF4BB0F11F460FF1BC06F5F7F4F8F4F38
:101740009F4F16C0882311F096E911C0772321F02E
:101750009EE8872F762F05C0662371F096E8862FC6
:1017600070E060E02AF09A95660F771F881FDAF71D
:10177000880F9695879597F90895990F0008550F4A
:10178000AA0BE0E8FEEF16161706E807F907C0F007
:1017900012161306E407F50798F0621B730B840B0F
:1017A000950B39F40A2661F0232B242B252B21F4E9
:1017B00008950A2609F4A140A6958FEF811D811D89
:1017C00008950E94F40B0C94650C0E94570C38F09D
:1017D0000E945E0C20F0952311F00C944E0C0C949A
:1017E000540C11240C94990C0E94760C70F3959F64
:1017F000C1F3950F50E0551F629FF001729FBB2708
:10180000F00DB11D639FAA27F00DB11DAA1F649FA3
:101810006627B00DA11D661F829F2227B00DA11D56
:10182000621F739FB00DA11D621F839FA00D611DDC
:10183000221F749F3327A00D611D231F849F600DFD
:10184000211D822F762F6A2F11249F5750409AF026
:10185000F1F088234AF0EE0FFF1FBB1F661F771FB2
:10186000881F91505040A9F79E3F510580F00C947D
:101870004E0C0C94990C5F3FE4F3983ED4F386959C
:1018800077956795B795F795E7959F5FC1F7FE2B1D
:10189000880F911D9695879597F9089597F99F67F9
:1018A00080E870E060E008959FEF80EC08950024E8
:1018B0000A941616170618060906089500240A94B5
:1018C00012161306140605060895092E0394000C3B
:1018D00011F4882352F0BB0F40F4BF2B11F460FFCA
:1018E00004C06F5F7F4F8F4F9F4F089557FD9058F3
:1018F000440F551F59F05F3F71F04795880F97FBD4
:10190000991F61F09F3F79F087950895121613068D
:101910001406551FF2CF4695F1DF08C016161706BC
:101920001806991FF1CF86957105610508940895F1
:10193000E894BB2766277727CB0197F9089550587D
:10194000BB27AA270E94B70C0C94650C0E94570C69
:1019500038F00E945E0C20F039F49F3F19F426F411
:101960000C94540C0EF4E095E7FB0C944E0CE92F0C
:101970000E94760C58F3BA1762077307840795071D
:1019800020F079F4A6F50C94980C0EF4E0950B2E4B
:10199000BA2FA02D0B01B90190010C01CA01A001C1
:1019A0001124FF27591B99F0593F50F4503E68F11C
:1019B0001A16F040A22F232F342F4427585FF3CF5D
:1019C000469537952795A795F0405395C9F77EF42E
:1019D0001F16BA0B620B730B840BBAF09150A1F077
:1019E000FF0FBB1F661F771F881FC2F70EC0BA0FFD
:1019F000621F731F841F48F4879577956795B79585
:101A0000F7959E3F08F0B0CF9395880F08F099277F
:101A1000EE0F9795879508950E94200D0C94650C04
:101A20000E945E0C58F00E94570C40F029F45F3F72
:101A300029F00C944E0C51110C94990C0C94540CEC
:101A40000E94760C68F39923B1F3552391F3951B0B
:101A5000550BBB27AA2762177307840738F09F5FCF
:101A60005F4F220F331F441FAA1FA9F335D00E2E3C
:101A70003AF0E0E832D091505040E695001CCAF7A9
:101A80002BD0FE2F29D0660F771F881FBB1F26176C
:101A900037074807AB07B0E809F0BB0B802DBF0143
:101AA000FF2793585F4F3AF09E3F510578F00C9412
:101AB0004E0C0C94990C5F3FE4F3983ED4F386955A
:101AC00077956795B795F7959F5FC9F7880F911D33
:101AD0009695879597F90895E1E0660F771F881F1F
:101AE000BB1F621773078407BA0720F0621B730BD2
:101AF000840BBA0BEE1F88F7E09508950E94850DC0
:101B00006894B1110C94990C08950E947E0C88F091
:101B10009F5798F0B92F9927B751B0F0E1F0660FB1
:101B2000771F881F991F1AF0BA95C9F714C0B130F2
:101B300091F00E94980CB1E008950C94980C672FD6
:101B4000782F8827B85F39F0B93FCCF38695779521
:101B50006795B395D9F73EF490958095709561950A
:101B60007F4F8F4F9F4F08950E94BD0B08F48FEF5A
:101B700008950E94BD0B880B990B0895A1E21A2EBF
:101B8000AA1BBB1BFD010DC0AA1FBB1FEE1FFF1F21
:101B9000A217B307E407F50720F0A21BB30BE40B71
:101BA000F50B661F771F881F991F1A9469F76095B8
:101BB0007095809590959B01AC01BD01CF01089572
:101BC000052E97FB1EF400940E94F70D57FD07D0D9
:101BD0000E94BE0D07FC03D04EF40C94F70D5095F7
:101BE0004095309521953F4F4F4F5F4F0895909509
:101BF0008095709561957F4F8F4F9F4F0895EE0FA1
:101C0000FF1F881F8BBF0790F691E02D19940F934B
:101C10001F93CF93DF938230910510F482E090E020
:101C2000E0911605F091170530E020E0B0E0A0E06B
:101C3000309799F42115310509F44AC0281B390B56
:101C400024303105D8F58A819B816115710589F1B0
:101C5000FB0193838283FE0111C040815181028187
:101C6000138148175907E0F04817590799F410975E
:101C700061F012960C93129713961C933296CF0133
:101C8000DF91CF911F910F91089500931605109346
:101C90001705F4CF2115310551F04217530738F0DD
:101CA000A901DB019A01BD01DF01F801C1CFEF01FC
:101CB000F9CF9093170580931605CDCFFE01E20F63
:101CC000F31F819391932250310939832883D7CF11
:101CD0002091140530911505232B41F420911C020D
:101CE00030911D02309315052093140520911A029E
:101CF00030911B022115310541F42DB73EB74091BB
:101D00001E0250911F02241B350BE0911405F09127
:101D10001505E217F307A0F42E1B3F0B2817390710
:101D200078F0AC014E5F5F4F2417350748F04E0F37
:101D30005F1F5093150540931405819391939FCF96
:101D4000F0E0E0E09CCFCF93DF930097E9F0FC0157
:101D5000329713821282A0911605B0911705ED01FA
:101D600030E020E01097A1F420813181820F931F91
:101D700020911405309115052817390709F061C025
:101D8000F0931505E0931405DF91CF910895EA01D2
:101D9000CE17DF07E8F54A815B819E0141155105A9
:101DA000B1F7E901FB83EA8349915991C40FD51F2B
:101DB000EC17FD0761F4808191810296840F951FD5
:101DC000E90199838883828193819B838A83F0E0F0
:101DD000E0E012968D919C9113970097B9F52D91A3
:101DE0003C911197CD010296820F931F209114050B
:101DF000309115052817390739F6309751F51092AB
:101E0000170510921605B0931505A0931405BCCFC5
:101E1000D383C28340815181840F951FC817D9078E
:101E200061F44E5F5F4F88819981480F591F51833C
:101E300040838A819B81938382832115310509F038
:101E4000B0CFF0931705E09316059ECFFD01DC019E
:101E5000C0CF13821282D7CF4F925F926F927F9240
:101E60008F929F92AF92BF92CF92DF92EF92FF92AA
:101E70000F931F93CF93DF938C01009799F4CB01BD
:101E8000DF91CF911F910F91FF90EF90DF90CF9056
:101E9000BF90AF909F908F907F906F905F904F908A
:101EA0000C94070EFC01E60FF71F9C01225031092C
:101EB000E217F30708F4AEC0D901CD91DC91119778
:101EC000C617D70720F1C530D10578F0CE010497A9
:101ED0008617970750F0C61BD70B2297C193D19353
:101EE0006D937C93CF010E94A30EC801DF91CF9127
:101EF0001F910F91FF90EF90DF90CF90BF90AF9028
:101F00009F908F907F906F905F904F9008955B01AE
:101F1000AC1ABD0A4C018C0E9D1EA0911605B09105
:101F20001705512C412CF12CE12C109731F58091A3
:101F30001405909115058815990509F05CC04616A1
:101F4000570608F058C080911A0290911B02009722
:101F500041F48DB79EB740911E0250911F02841B21
:101F6000950BE817F90708F055C0F0931505E093B5
:101F70001405F90171836083B8CF8D919C911197FD
:101F800012966C90129713967C901397A815B9052A
:101F900059F56C0142E0C40ED11CCA14DB0420F1D7
:101FA000AC014A195B09DA011296159780F062823A
:101FB000738251834083D9016D937C93E114F104C2
:101FC00071F0D7011396FC93EE9312978ECF229661
:101FD0008C0F9D1FF90191838083F301EFCFF09364
:101FE0001705E093160581CF4816590608F42C0111
:101FF0007D01D3019ACFCB010E94070E7C0100978F
:1020000049F0AE01B8010E940D10C8010E94A30E54
:1020100087016BCF10E000E068CFFB01DC0102C05C
:1020200001900D9241505040D8F70895FB01DC011A
:0E20300001900D920020E1F70895F894FFCF83
:10203E0068003400020302030203020302030203D8
:10204E000203020396430B3E0200000018058000B7
:10205E000000A04100002042000070420000A0429B
:10206E000000C6420000EE4200000A4300001D437D
:10207E000000304300004343000055430000674317
:10208E00000079430000854300008D430080954396
:10209E0000809D430000A5430080AC430080B34305
:1020AE000000BA430000C1430000C7430000CD4307
:1020BE000080D2430080D7430080DC430000E14320
:1020CE000080E5430000E9430080EC430080EF43CD
:1020DE000000F2430080F4430080F6430000F84312
:1020EE000000F9430080F9430000FA430000FA4370
:1020FE000080F9430080F8430000F7430080F54369
:10210E000080F3430000F1430000EE430000EB4378
:10211E000000E7430000E3430000DF430000DA4322
:10212E000000D5430080CF430000CA430000C443E3
:10213E000080BD430000B7430000B0430080A843B9
:10214E000000A14300809943008091430000894321
:10215E00008080430000704300005E4300004C434B
:10216E0000003A43000027430000144300000143DF
:10217E000000DA420000B44200008C4200004842E7
:10218E000000F04100002041000020C10000F0C11D
:10219E00000048C200008CC20000B4C20000DAC2C7
:1021AE00000001C3000014C3000027C300003AC39F
:1021BE0000004CC300005EC3000070C3008080C3EB
:1021CE00000089C3008091C3008099C30000A1C3A1
:1021DE000080A8C30000B0C30000B7C30080BDC319
:1021EE000000C4C30000CAC30080CFC30000D5C323
:1021FE000000DAC30000DFC30000E3C30000E7C342
:10220E000000EBC30000EEC30000F1C30080F3C377
:10221E000080F5C30000F7C30080F8C30080F9C347
:10222E000000FAC30000FAC30080F9C30000F9C32E
:10223E000000F8C30080F6C30080F4C30000F2C3B0
:10224E000080EFC30080ECC30000E9C30080E5C34B
:10225E000000E1C30080DCC30080D7C30080D2C37E
:10226E000000CDC30000C7C30000C1C30000BAC345
:10227E000080B3C30080ACC30000A5C300809DC323
:10228E00008095C300008DC3000085C3000079C394
:10229E00000067C3000055C3000043C3000030C3F5
:1022AE0000001DC300000AC30000EEC20000C6C23B
:1022BE000000A0C2000070C2000020C20000A0C139
:1022CE000000000000000000DD04680104030303A9
:1022DE006E616E00696E66006F766600467265719D
:1022EE0075656E63793A200020487A006D3A005683
:1022FE0064633A0056202020202020202000202039
:10230E0020202020202020202020202020200053AC
:0A231E00746F70204D6F64650000BD
:00000001FF
